:040000008A15FC2A37
:10000800FF00030E8301D0000A08D1008A0170089E
:10001800A3007108A2007208A1007308A0008A1545
:10002800E4228A1101307006031D1F288A15F82260
:100038008A110130B5002308F0002208F1002108D8
:10004800F2002008F30051088A00500E8300FF0ECA
:040058007F0E09000E
:10005C004128053083120313F10058280630F100B3
:10006C0058280730F10058280830F100582809307A
:10007C00F10058282D298312031361080A3A031939
:10008C002F2861080B3A0319342861080C3A03191C
:10009C00372861080D3A03193A2861080E3A0319FA
:1000AC003D2840280A298312031301306306031DDF
:1000BC0063287108840000146E2800306306031D49
:1000CC006B287108840000106E28710884000010E1
:1000DC002D298312031301306306031D792871083F
:1000EC0084008014842800306306031D8128710865
:1000FC008400801084287108840080102D298312BC
:10010C00031301306306031D8F287108840000154A
:10011C009A2800306306031D97287108840000118B
:10012C009A287108840000112D29831203130130C1
:10013C006306031DA528710884008015B0280030C3
:10014C006306031DAD28710884008011B028710866
:10015C00840080112D298312031301306306031DC3
:10016C00BB28710884000016C62800306306031DE6
:10017C00C328710884000012C6287108840000127C
:10018C002D298312031301306306031DD128710836
:10019C0084008016DC2800306306031DD928710802
:1001AC0084008012DC287108840080122D298312AF
:1001BC00031301306306031DE72871088400001740
:1001CC00F22800306306031DEF2871088400001329
:1001DC00F2287108840000132D29831203130130B7
:1001EC006306031DFD287108840080170829003060
:1001FC006306031D05297108840080130829710802
:10020C00840080132D292D29831203136208003AD0
:10021C00031959286208013A03196F286208023A37
:10022C00031985286208033A03199B286208043ACB
:10023C000319B1286208053A0319C7286208063A5F
:10024C000319DD286208073A0319F3280929080065
:10025C00013083120313E30044290530F1005929BE
:10026C000630F10059290730F10059290830F10006
:10027C0059290930F1005929E301592961080A3A31
:10028C000319332961080B3A0319362961080C3A12
:10029C000319392961080D3A03193C2961080E3AF2
:1002AC0003193F29422901306306031DD929B829B6
:1002BC00710884000008F000701C67290130E3000D
:1002CC006829E301D929710884000008F000F01CAA
:1002DC0072290130E3007329E301D92971088400E4
:1002EC000008F000701D7D290130E3007E29E30138
:1002FC00D929710884000008F000F01D882901300C
:10030C00E3008929E301D929710884000008F00071
:10031C00701E93290130E3009429E301D929710857
:10032C0084000008F000F01E9E290130E3009F2994
:10033C00E301D929710884000008F000701FA92975
:10034C000130E300AA29E301D929710884000008CF
:10035C00F000F01FB4290130E300B529E301D929DD
:10036C00E301D9296208003A03195E296208013AAF
:10037C00031969296208023A031974296208033ABD
:10038C0003197F296208043A03198A296208053A7D
:10039C00031995296208063A0319A0296208073A3D
:0C03AC000319AB29B6296308F000080013
:1003B80083120313E0010D30E100E201E3012E2076
:1003C8000D3083120313E1000130E200E3012E2017
:1003D8000D3083120313E1000230E200E3012E2006
:1003E800132A0D3083120313E100E2010130E30008
:1003F8002E20222A0D3083120313E1000130E2007F
:100408000130E3002E20222A0D3083120313E1006D
:100418000230E2000130E3002E20222AA02A8312B3
:1004280003135E08003A0319F5295E08013A031917
:10043800FE295E08023A0319082A122A452A83125D
:1004480003130C30E100E2012E217008E000582A65
:100458000C30E1000130E2002E217008E000582A3B
:100468000C30E1000230E2002E217008E000582A2A
:100478000C30E1000330E2002E217008E000582A19
:10048800A02A831203135D08003A0319232A5D0882
:10049800013A03192C2A5D08023A0319342A5D0827
:1004A800033A03193C2A442A5F08F000F00D701043
:1004B8003730F007700A840000300006031D7B2ADD
:1004C8005F08F000F00D70107008373E840080015E
:1004D80000306006031D7A2A5F08F000F00D7010E6
:1004E8003730F007700A840001308000A02A5F08C6
:1004F800F000F00D70103730F007700A84000130FA
:100508000006031DA02A01306006031D9F2A5F080C
:10051800F000F00D70107008373E84000130800044
:100528005F08F000F00D70103730F007700A840093
:0A05380080015F08A400A02A08005B
:10054200CB2A0B3083120313E1000430E2000130A6
:10055200E3002E20DE2A0B3083120313E100053064
:10056200E2000130E3002E20DE2A0B308312031357
:10057200E1000630E2000130E3002E20DE2A0B30DB
:1005820083120313E1000730E2000130E3002E2062
:10059200DE2ADE2A831203135D08003A0319A22A17
:1005A2005D08013A0319AC2A5D08023A0319B62A1A
:0C05B2005D08033A0319C02ACA2A080099
:1005BE000B3083120313E100E20101305D05E3000D
:1005CE002E200B3083120313E1000130E2000030C5
:1005DE00DD180130E3002E200B3083120313E100EF
:1005EE000230E20000305D190130E3002E200B30A6
:1005FE0083120313E1000330E2000030DD190130F5
:06060E00E3002E200800AD
:10061400302B0B3083120313E1000430E200E301BA
:100624002E20432B0B3083120313E1000530E2002C
:10063400E3012E20432B0B3083120313E100063019
:10064400E200E3012E20432B0B3083120313E1005D
:100654000730E200E3012E20432B432B83120313C4
:100664005D08003A03190B2B5D08013A0319142B9A
:100674005D08023A03191D2B5D08033A0319262B62
:040684002F2B080010
:10068800B62B83120313DD01DE010130DF00DC210C
:10069800E92B013083120313DD00DE010430DF0093
:1006A800DC21E92B023083120313DD00DE01073061
:1006B800DF00DC21E92B033083120313DD00DE01A8
:1006C8000A30DF00DC21E92B83120313DD0101303E
:1006D800DE000230DF00DC21E92B01308312031336
:1006E800DD000130DE000530DF00DC21E92B0230BF
:1006F80083120313DD000130DE000830DF00DC2147
:10070800E92B033083120313DD000130DE00DF0123
:10071800DC21E92B83120313DD010230DE000330F4
:10072800DF00DC21E92B013083120313DD000230E6
:10073800DE000630DF00DC21E92B023083120313D0
:10074800DD000230DE000930DF00DC21E92B033058
:1007580083120313DD000230DE000B30DF00DC21E2
:10076800E92BE92B831203135C08013A0319452B83
:100778005C08043A03194D2B5C08073A0319562BF9
:100788005C080A3A03195F2B5C08023A0319682BC4
:100798005C08053A0319712B5C08083A03197B2B8E
:1007A8005C08003A0319852B5C08033A03198E2B61
:1007B8005C08063A0319972B5C08093A0319A12B20
:0C07C8005C080B3A0319AB2BB52B0800A2
:1007D400831203137008F100F0010830FC00710863
:1007E400F40C0318F92BFC0BF22BF1010034031069
:1007F400FE2BF40C0318F107F10CF00CFC0BFB2B93
:020804000800EA
:1008060083120313DD01A122013083120313DD00DD
:10081600A122023083120313DD00A12203308312CA
:100826000313DD00A1224C2C831203132A08DD00DA
:10083600DF2283120313DD010A230130831203131F
:10084600B6005F2C2908DD00DF2201308312031376
:10085600DD000A23023083120313B6005F2C2B0837
:10086600DD00DF22023083120313DD000A2303308A
:1008760083120313B6005F2C2D08DD00DF22033040
:1008860083120313DD000A2383120313B6015F2CC0
:100896005F2C831203133608003A0319172C360807
:1008A600013A0319252C3608023A0319322C360868
:0A08B600033A03193F2C4B2C0800F5
:1008C000732C853083120313F1008A2C8630F100DB
:1008D0008A2C8730F1008A2C8830F1008A2C8930EC
:1008E000F1008A2C5F2D8312031359080A3A031969
:1008F000612C59080B3A0319662C59080C3A031954
:10090000692C59080D3A03196C2C59080E3A031931
:100910006F2C722C3C2D8312031300305B06031DD9
:10092000952C710884000010A02C01305B06031D7B
:100930009D2C710884000014A02C71088400001400
:100940005F2D8312031300305B06031DAB2C71086F
:1009500084008010B62C01305B06031DB32C710897
:1009600084008014B62C7108840080145F2D8312DB
:10097000031300305B06031DC12C710884000011B5
:10098000CC2C01305B06031DC92C710884000015B6
:10099000CC2C7108840000155F2D831203130030E6
:1009A0005B06031DD72C710884008011E22C0130F6
:1009B0005B06031DDF2C710884008015E22C710892
:1009C000840080155F2D8312031300305B06031D26
:1009D000ED2C710884000012F82C01305B06031D19
:1009E000F52C710884000016F82C7108840000169C
:1009F0005F2D8312031300305B06031D032D710866
:100A0000840080120E2D01305B06031D0B2D710832
:100A1000840080160E2D7108840080165F2D8312CD
:100A2000031300305B06031D192D710884000013A9
:100A3000242D01305B06031D212D71088400001751
:100A4000242D7108840000175F2D831203130030DA
:100A50005B06031D2F2D7108840080133A2D013091
:100A60005B06031D372D7108840080173A2D71082D
:100A7000840080175F2D5F2D831203135A08003AFC
:100A800003198B2C5A08013A0319A12C5A08023A6F
:100A90000319B72C5A08033A0319CD2C5A08043A03
:100AA0000319E32C5A08053A0319F92C5A08063A97
:100AB00003190F2D5A08073A0319252D3B2D08005D
:100AC000831203139201FF30831692008312910167
:080AD0008C1083168C10080045
:0C0AD800831203135908831692000800D3
:0E0AE4008312031353088A0052088200080090
:100AF20083120313D901083059020318F42D073069
:100B0200F0005908F400EA237008A03E84000008AF
:100B1200F000840A0008F100840A0008F200840A46
:100B220000087008F3007108F4007208F5007308F9
:100B3200F6000030F0007606031DA92D7008750638
:100B4200031DA92D70087406031DA92D7308003A10
:100B52000319F22D0730F0005908F400EA23A030FF
:100B6200F00704307007F100710884000003F00000
:100B720071088400700880000730F0005908F40002
:100B8200EA23A030F007043070078400003000062A
:100B9200031DF12D0730F0005908F400EA23A030BC
:100BA200F00706307007F10071088400000AF000B7
:100BB20071088400700880000730F0005908F400C2
:100BC200EA23A030F00704307007F1000330700709
:100BD20084000008F0007108840070088000F12D84
:080BE200F22DD90A7C2D080058
:100BEA00022E8312031359089200112E59089200FB
:100BFA00112E59089200112E112E8312031359082F
:100C0A00003A0319F62D5908013A0319FB2D590820
:100C1A00023A0319FE2D012EC32E5A08F000F00DD8
:100C2A007010F00D7010F00D701070089204042FFF
:100C3A005A08F000F00D7010F00D7010F00D7010E1
:100C4A0070089204042F5A08F000F00D7010F00D8D
:100C5A007010F00D701070089204042F5A08F000FA
:100C6A00F00D7010F00D7010F00D701070089204F5
:100C7A00042F5A08F000F00D7010F00D7010F00DEE
:100C8A00701070089204042F5A08F000F00D7010CA
:100C9A00F00D7010F00D701070089204042F5A08AD
:100CAA00F000F00D7010F00D7010F00D701070085B
:100CBA009204042F5A08F000F00D7010F00D701015
:100CCA00F00D701070089204042F5A08F000F00D0D
:100CDA007010F00D7010F00D701070089204042F4F
:100CEA005A08F000F00D7010F00D7010F00D701031
:100CFA0070089204042F5A08F000F00D7010F00DDD
:100D0A007010F00D701070089204042F5A08F00049
:100D1A00F00D7010F00D7010F00D70107008920444
:100D2A00042F5A08F000F00D7010F00D7010F00D3D
:100D3A00701070089204042F5A08F000F00D701019
:100D4A00F00D7010F00D701070089204042F5A08FC
:100D5A00F000F00D7010F00D7010F00D70107008AA
:100D6A009204042F5A08F000F00D7010F00D701064
:100D7A00F00D701070089204042F042F5A08003ADC
:100D8A000319122E5A08013A03191D2E5A08023A5B
:100D9A000319282E5A08033A0319332E5A08043A1B
:100DAA0003193E2E5A08053A0319492E5A08063ADB
:100DBA000319542E5A08073A03195F2E5A08083A9B
:100DCA0003196A2E5A08093A0319752E5A080A3A5B
:100DDA000319802E5A080B3A03198B2E5A080C3A1B
:100DEA000319962E5A080D3A0319A12E5A080E3ADB
:100DFA000319AC2E5A080F3A0319B72EC22E08004F
:040E0A008B1708003A
:100E0E000C30831203132F06031D0E2FAF012F0874
:0C0E1E00DC00442383120313AF0A080019
:100E2A0008308312031359020318762F0730F00093
:100E3A005908F400EA237008A03E84000008F00074
:100E4A00840A0008F100840A0008F200840A0008F3
:100E5A007008F3007108F4007208F5007308F600D0
:100E6A000030F0007606031D442F70087506031D36
:100E7A00442F70087406031D442F7308003A03199F
:100E8A00762F0730F0005908F400EA237008A03ED4
:100E9A00840000308000840A8001840A80010730BF
:100EAA00F0005908F400EA23A030F0070630700772
:100EBA00840080010730F0005908F400EA23A030CA
:100ECA00F00704307007840080010730F0005908E9
:100EDA00F400EA23A030F007033070078400800191
:040EEA00762F080057
:080EEE00831603138C140800A5
:080EF6007F308B050B1708008B
:080EFE00831203131215080012
:100F0600982F0D3083120313E1000530E200E30150
:100F16002E20A32F0D3083120313E1000530E200CB
:100F26000130E3002E20A32FA32F831203132508DD
:100F3600003A0319842F2508013A03198D2F972F9C
:020F46000800A1
:100F48000030831203133006031DB62F0D30E10065
:100F58000430E2002E2100307006031DB52F013049
:100F6800B000D22F01303006031DD22F0D30E10022
:100F78000430E2002E2101307006031DD12F00300D
:100F88002706031DCA2F0130A700D02F01302706DE
:0E0F9800031DD02FA701D02FB001D22F0800CB
:100FA600E82F0D3083120313E1000630E200E3015F
:100FB6002E20F32F0D3083120313E1000630E200DA
:100FC6000130E3002E20F32FF32F831203132C0896
:100FD600003A0319D42F2C08013A0319DD2FE72F05
:020FE600080001
:0E0FE8008312031353088A0052088200080087
:10100000AC2883120313AA01A901AB01AD01323050
:10101000B1000030B200AC01A801A501B30101305C
:10102000CF00BB280B3024060319302801302606D8
:1010300003193028003027060319302800302A060B
:10104000031D2F2800302906031D2F2800302B06F2
:10105000031D2F2800302D06031D2F28302832288D
:10106000CF016C280130A8000130AC000130A50090
:101070000130B102031CB20300303206031D4228C6
:101080003108003A031D6C2800302D06031D672827
:1010900000302B06031D632800302906031D5D2840
:1010A00000302A06031D55285C28AA030930A90030
:1010B0000530AB000930AD006228A9030530AB0054
:1010C0000930AD006628AB030930AD006828AD03D8
:1010D0003230B1000030B200BB280D302406031DB1
:1010E0007228AA280B302406031D7C28AA01A90116
:1010F000AB01AD01B301AA280A302406031D9428D0
:1011000000302606031D942801302706031D94286D
:1011100000302A06031D912800302906031D91285E
:1011200094280230CF00AA280A3024060319AA28DE
:10113000A2282408AA000130B300AA282408A90084
:10114000B301AA283308003A031999283308013A51
:1011500003199E28BB28BB28831203134F08003AAB
:10116000031901284F08023A031912284F08013ABF
:0C11700003196D28AB280D30A400080006
:10117C00D7280D3083120313E1000730E200E3019E
:10118C008A112E208A15E2280D3083120313E100F8
:10119C000730E2000130E3008A112E208A15E22884
:1011AC00E228831203132808003A0319BF282808E1
:0A11BC00013A0319CA28D6280800DA
:1011C6000030831203132E06031DF7280D30E100AD
:1011D6000330E2008A112E218A1500307006031DA5
:1011E600F6280130AE00152901302E06031D1529FB
:1011F6000D30E1000330E2008A112E218A150130FC
:101206007006031D142901302606031D0C29A601AC
:10121600132900302606031D13290130A6001329C1
:06122600AE0115290800CD
:08122C008A1103248A15080051
:101234008A1177278A158A1105278A158A117F272B
:041244008A150800FF
:101248008A11F4278A150A128000840AD20A03191F
:0A125800D30AF003031D2429080047
:101262000830831203133402031885290730F00073
:101272003408F4008A11EA238A157008A03E84001B
:10128200540880005508840A80005608840A8000A9
:1012920057080730F0003408F4008A11EA238A154F
:1012A200A030F007043070078400570AF00070087D
:1012B20080000730F0003408F4008A11EA238A150E
:1012C200A030F00703307007840058088000073010
:1012D200F0003408F4008A11EA238A15A030F007DE
:1012E20006307007840080010730F0003408F400F3
:1012F2008A11EA238A15A030F007053070078400AE
:0A13020034088000B40A85290800B1
:10130C0083120313D401083054020318942954088F
:10131C00D9008A1115278A15D40A89298A117B27A5
:10132C008A158A1160258A1501308312D90009307B
:10133C00DA008A11F5258A15FA30D9008A116C2544
:04134C008A150800F6
:101350000B3083120313D900DA01DB018A116024F8
:101360008A150B3083120313D9000130DA00DB0138
:101370008A1160248A150B3083120313D9000230BE
:10138000DA00DB018A1160248A150B308312031303
:10139000D9000330DA00DB018A1160248A150B3092
:1013A00083120313D9000430DA00DB018A116024B0
:1013B0008A150B3083120313D9000530DA00DB01E4
:1013C0008A1160248A150B3083120313D90006306A
:1013D000DA00DB018A1160248A150B3083120313B3
:1013E000D9000730DA00DB018A1160248A15080071
:1013F0000D3083120313D9000430DA000130DB0012
:081400008A1160248A1508001E
:101408000130831203133506031D6D2A8A117925CD
:101418008A15D4010830540203186C2A0730F000EA
:101428005408F4008A11EA238A15A030F007063020
:10143800700784000008003C03186A2A0730F0008F
:101448005408F4008A11EA238A157008A03E840023
:101458000008F000840A0008F100840A0008F2007D
:10146800840A00087008D2007108D3008A11722516
:101478008A150A12073083120313F0005408F40087
:101488008A11EA238A15A030F00706307007F100A8
:10149800710884000003F00071088400700880005F
:1014A8000730F0005408F4008A11EA238A15A030A6
:1014B800F00703307007840000300006031D692A16
:1014C8005408D9008A1115278A156A2AD40A0E2ABF
:0414D800B501080052
:1014DC000D3083120313D9000530DA00DB018A11B9
:0614EC0060248A150800CF
:1014F2000C3083120313D900DA010130DB008A11A8
:1015020060248A150C3083120313D9000130DA00EB
:101512000130DB008A1160248A150C308312031318
:10152200D9000230DA000130DB008A1160248A150A
:101532000C3083120313D9000330DA000130DB00D0
:101542008A1160248A150D3083120313D900DA013F
:10155200DB018A1160248A150D3083120313D9002E
:101562000130DA00DB018A1160248A150D30831202
:101572000313D9000230DA00DB018A1160248A15D4
:0215820008005F
:101584000D3083120313D9000730DA00DB018A110E
:0615940060248A15080026
:10159A000D3083120313D9000630DA00DB018A11F9
:0615AA0060248A15080010
:1015B0000D3083120313D9000330DA000130DB0051
:0815C0008A1160248A1508005D
:1015C8000230831203130C05F2007208F100F10CCB
:1015D800F11301307106031DF42A0130F300F52AD6
:0815E800F3017308F000080094
:0815F000831203138C100800A4
:1015F80094236E22C222D822CD22F8217922A82152
:10160800862107308312D4000730D5000030D60079
:101618000030D7010130D8003121A430D400073080
:10162800D5000030D6000030D7010230D800312173
:10163800E330D4000830D5000030D6000030D701A0
:101648000230D80031210030D4000830D5000030F5
:10165800D6000030D7010230D80031211630D4002E
:101668000930D5000030D6000030D7010130D8004D
:101678003121BE30D4000830D5000030D60000300B
:10168800D7010230D8003121D330D4000730D5003B
:101698000030D6000030D7010230D8003121833025
:1016A800D4000730D5000030D6000030D701023012
:0C16B800D80031211A2104225F2B612B85
:10172800243084002C3083120313F0006730D20079
:081738000B30D300242108004E
:0216CE000D34D9
:0216D0000034E4
:0216D2000134E1
:0216D4000034E0
:0216D6000034DE
:0216D8000034DC
:0216DA000034DA
:0216DC000034D8
:0216DE000034D6
:0216E0000034D4
:0216E2000034D2
:0216E4000034D0
:0216E6000034CE
:0416E8003234003464
:0216EC000034C8
:0216EE000034C6
:0216F0000134C3
:0216F2000034C2
:1016F4000034003400340034003400340034003446
:101704000034003400340034003400340034003435
:101714000034003400340034003400340034003425
:0217240000348F
:02400E004A2F37
:00000001FF
